{
  "_format": "hh3-artifact-1",
  "contractName": "CarbonCreditToken",
  "sourceName": "contracts/CarbonCreditToken.sol",
  "abi": [
    {
      "inputs": [],
      "stateMutability": "nonpayable",
      "type": "constructor"
    },
    {
      "anonymous": false,
      "inputs": [
        {
          "indexed": true,
          "internalType": "address",
          "name": "owner",
          "type": "address"
        },
        {
          "indexed": true,
          "internalType": "address",
          "name": "spender",
          "type": "address"
        },
        {
          "indexed": false,
          "internalType": "uint256",
          "name": "value",
          "type": "uint256"
        }
      ],
      "name": "Approval",
      "type": "event"
    },
    {
      "anonymous": false,
      "inputs": [
        {
          "indexed": true,
          "internalType": "address",
          "name": "oldMinter",
          "type": "address"
        },
        {
          "indexed": true,
          "internalType": "address",
          "name": "newMinter",
          "type": "address"
        }
      ],
      "name": "MinterUpdated",
      "type": "event"
    },
    {
      "anonymous": false,
      "inputs": [
        {
          "indexed": true,
          "internalType": "address",
          "name": "from",
          "type": "address"
        },
        {
          "indexed": true,
          "internalType": "address",
          "name": "to",
          "type": "address"
        },
        {
          "indexed": false,
          "internalType": "uint256",
          "name": "value",
          "type": "uint256"
        }
      ],
      "name": "Transfer",
      "type": "event"
    },
    {
      "inputs": [
        {
          "internalType": "address",
          "name": "",
          "type": "address"
        },
        {
          "internalType": "address",
          "name": "",
          "type": "address"
        }
      ],
      "name": "allowance",
      "outputs": [
        {
          "internalType": "uint256",
          "name": "",
          "type": "uint256"
        }
      ],
      "stateMutability": "view",
      "type": "function"
    },
    {
      "inputs": [
        {
          "internalType": "address",
          "name": "spender",
          "type": "address"
        },
        {
          "internalType": "uint256",
          "name": "value",
          "type": "uint256"
        }
      ],
      "name": "approve",
      "outputs": [
        {
          "internalType": "bool",
          "name": "",
          "type": "bool"
        }
      ],
      "stateMutability": "nonpayable",
      "type": "function"
    },
    {
      "inputs": [
        {
          "internalType": "address",
          "name": "",
          "type": "address"
        }
      ],
      "name": "balanceOf",
      "outputs": [
        {
          "internalType": "uint256",
          "name": "",
          "type": "uint256"
        }
      ],
      "stateMutability": "view",
      "type": "function"
    },
    {
      "inputs": [],
      "name": "decimals",
      "outputs": [
        {
          "internalType": "uint8",
          "name": "",
          "type": "uint8"
        }
      ],
      "stateMutability": "view",
      "type": "function"
    },
    {
      "inputs": [
        {
          "internalType": "address",
          "name": "to",
          "type": "address"
        },
        {
          "internalType": "uint256",
          "name": "value",
          "type": "uint256"
        }
      ],
      "name": "mint",
      "outputs": [
        {
          "internalType": "bool",
          "name": "",
          "type": "bool"
        }
      ],
      "stateMutability": "nonpayable",
      "type": "function"
    },
    {
      "inputs": [],
      "name": "minter",
      "outputs": [
        {
          "internalType": "address",
          "name": "",
          "type": "address"
        }
      ],
      "stateMutability": "view",
      "type": "function"
    },
    {
      "inputs": [],
      "name": "name",
      "outputs": [
        {
          "internalType": "string",
          "name": "",
          "type": "string"
        }
      ],
      "stateMutability": "view",
      "type": "function"
    },
    {
      "inputs": [],
      "name": "owner",
      "outputs": [
        {
          "internalType": "address",
          "name": "",
          "type": "address"
        }
      ],
      "stateMutability": "view",
      "type": "function"
    },
    {
      "inputs": [
        {
          "internalType": "address",
          "name": "newMinter",
          "type": "address"
        }
      ],
      "name": "setMinter",
      "outputs": [],
      "stateMutability": "nonpayable",
      "type": "function"
    },
    {
      "inputs": [],
      "name": "symbol",
      "outputs": [
        {
          "internalType": "string",
          "name": "",
          "type": "string"
        }
      ],
      "stateMutability": "view",
      "type": "function"
    },
    {
      "inputs": [],
      "name": "totalSupply",
      "outputs": [
        {
          "internalType": "uint256",
          "name": "",
          "type": "uint256"
        }
      ],
      "stateMutability": "view",
      "type": "function"
    },
    {
      "inputs": [
        {
          "internalType": "address",
          "name": "to",
          "type": "address"
        },
        {
          "internalType": "uint256",
          "name": "value",
          "type": "uint256"
        }
      ],
      "name": "transfer",
      "outputs": [
        {
          "internalType": "bool",
          "name": "",
          "type": "bool"
        }
      ],
      "stateMutability": "nonpayable",
      "type": "function"
    },
    {
      "inputs": [
        {
          "internalType": "address",
          "name": "from",
          "type": "address"
        },
        {
          "internalType": "address",
          "name": "to",
          "type": "address"
        },
        {
          "internalType": "uint256",
          "name": "value",
          "type": "uint256"
        }
      ],
      "name": "transferFrom",
      "outputs": [
        {
          "internalType": "bool",
          "name": "",
          "type": "bool"
        }
      ],
      "stateMutability": "nonpayable",
      "type": "function"
    }
  ],
  "bytecode": "0x6080604052348015600e575f5ffd5b50600180546001600160a01b031916331790556108bc8061002e5f395ff3fe608060405234801561000f575f5ffd5b50600436106100cb575f3560e01c806340c10f191161008857806395d89b411161006357806395d89b41146101ed578063a9059cbb1461020f578063dd62ed3e14610222578063fca3b5aa1461024c575f5ffd5b806340c10f19146101a857806370a08231146101bb5780638da5cb5b146101da575f5ffd5b806306fdde03146100cf5780630754617214610117578063095ea7b31461014257806318160ddd1461016557806323b872dd1461017b578063313ce5671461018e575b5f5ffd5b6101016040518060400160405280601381526020017221b0b93137b71021b932b234ba102a37b5b2b760691b81525081565b60405161010e9190610712565b60405180910390f35b60025461012a906001600160a01b031681565b6040516001600160a01b03909116815260200161010e565b610155610150366004610762565b610261565b604051901515815260200161010e565b61016d5f5481565b60405190815260200161010e565b61015561018936600461078a565b6102cd565b610196601281565b60405160ff909116815260200161010e565b6101556101b6366004610762565b6103d9565b61016d6101c93660046107c4565b60036020525f908152604090205481565b60015461012a906001600160a01b031681565b6101016040518060400160405280600381526020016210d0d560ea1b81525081565b61015561021d366004610762565b6104d9565b61016d6102303660046107e4565b600460209081525f928352604080842090915290825290205481565b61025f61025a3660046107c4565b6104ee565b005b335f8181526004602090815260408083206001600160a01b038716808552925280832085905551919290917f8c5be1e5ebec7d5bd14f71427d1e84f3dd0314c0f7b2291e5b200ac8c7c3b925906102bb9086815260200190565b60405180910390a35060015b92915050565b6001600160a01b0383165f908152600460209081526040808320338452909152812054828110156103575760405162461bcd60e51b815260206004820152602960248201527f436172626f6e437265646974546f6b656e3a20696e73756666696369656e7420604482015268616c6c6f77616e636560b81b60648201526084015b60405180910390fd5b5f1981146103c3576103698382610829565b6001600160a01b0386165f81815260046020908152604080832033808552908352928190208590555193845290927f8c5be1e5ebec7d5bd14f71427d1e84f3dd0314c0f7b2291e5b200ac8c7c3b925910160405180910390a35b6103ce8585856105c9565b506001949350505050565b6002545f906001600160a01b031633146104355760405162461bcd60e51b815260206004820152601d60248201527f436172626f6e437265646974546f6b656e3a206e6f74206d696e746572000000604482015260640161034e565b6001600160a01b03831661045b5760405162461bcd60e51b815260040161034e9061083c565b815f5f82825461046b9190610873565b90915550506001600160a01b0383165f9081526003602052604081208054849290610497908490610873565b90915550506040518281526001600160a01b038416905f907fddf252ad1be2c89b69c2b068fc378daa952ba7f163c4a11628f55a4df523b3ef906020016102bb565b5f6104e53384846105c9565b50600192915050565b6001546001600160a01b031633146105485760405162461bcd60e51b815260206004820152601c60248201527f436172626f6e437265646974546f6b656e3a206e6f74206f776e657200000000604482015260640161034e565b6001600160a01b03811661056e5760405162461bcd60e51b815260040161034e9061083c565b6002546040516001600160a01b038084169216907f1cf2de25c5bf439ac0287061c3a0fa69b3b02867d0ccfd2ded34e42577050b73905f90a3600280546001600160a01b0319166001600160a01b0392909216919091179055565b6001600160a01b0382166105ef5760405162461bcd60e51b815260040161034e9061083c565b6001600160a01b0383165f908152600360205260409020548111156106665760405162461bcd60e51b815260206004820152602760248201527f436172626f6e437265646974546f6b656e3a20696e73756666696369656e742060448201526662616c616e636560c81b606482015260840161034e565b6001600160a01b0383165f908152600360205260408120805483929061068d908490610829565b90915550506001600160a01b0382165f90815260036020526040812080548392906106b9908490610873565b92505081905550816001600160a01b0316836001600160a01b03167fddf252ad1be2c89b69c2b068fc378daa952ba7f163c4a11628f55a4df523b3ef8360405161070591815260200190565b60405180910390a3505050565b602081525f82518060208401528060208501604085015e5f604082850101526040601f19601f83011684010191505092915050565b80356001600160a01b038116811461075d575f5ffd5b919050565b5f5f60408385031215610773575f5ffd5b61077c83610747565b946020939093013593505050565b5f5f5f6060848603121561079c575f5ffd5b6107a584610747565b92506107b360208501610747565b929592945050506040919091013590565b5f602082840312156107d4575f5ffd5b6107dd82610747565b9392505050565b5f5f604083850312156107f5575f5ffd5b6107fe83610747565b915061080c60208401610747565b90509250929050565b634e487b7160e01b5f52601160045260245ffd5b818103818111156102c7576102c7610815565b6020808252601f908201527f436172626f6e437265646974546f6b656e3a207a65726f206164647265737300604082015260600190565b808201808211156102c7576102c761081556fea2646970667358221220b5249cbb2fcba918e0793b14c5f5c14d336596c59a854fa0561890bb54bdafb664736f6c634300081c0033",
  "linkReferences": {},
  "deployedLinkReferences": {},
  "immutableReferences": {},
  "inputSourceName": "project/contracts/CarbonCreditToken.sol",
  "buildInfoId": "solc-0_8_28-f532362f6cf1e12372a5ae332eeefc3d2a52c694"
}