{
  "_format": "hh3-artifact-1",
  "contractName": "CarbonCredit",
  "sourceName": "contracts/CarbonCredit.sol",
  "abi": [
    {
      "inputs": [
        {
          "internalType": "address",
          "name": "tokenAddress",
          "type": "address"
        },
        {
          "internalType": "address",
          "name": "agentAddress",
          "type": "address"
        }
      ],
      "stateMutability": "nonpayable",
      "type": "constructor"
    },
    {
      "anonymous": false,
      "inputs": [
        {
          "indexed": true,
          "internalType": "address",
          "name": "oldAgent",
          "type": "address"
        },
        {
          "indexed": true,
          "internalType": "address",
          "name": "newAgent",
          "type": "address"
        }
      ],
      "name": "AgentUpdated",
      "type": "event"
    },
    {
      "anonymous": false,
      "inputs": [
        {
          "indexed": true,
          "internalType": "uint256",
          "name": "entryId",
          "type": "uint256"
        },
        {
          "indexed": false,
          "internalType": "uint256",
          "name": "ndviBps",
          "type": "uint256"
        },
        {
          "indexed": false,
          "internalType": "uint256",
          "name": "creditsToMint",
          "type": "uint256"
        }
      ],
      "name": "CreditsCalculated",
      "type": "event"
    },
    {
      "anonymous": false,
      "inputs": [
        {
          "indexed": true,
          "internalType": "uint256",
          "name": "saleId",
          "type": "uint256"
        }
      ],
      "name": "CreditsDelisted",
      "type": "event"
    },
    {
      "anonymous": false,
      "inputs": [
        {
          "indexed": true,
          "internalType": "uint256",
          "name": "saleId",
          "type": "uint256"
        },
        {
          "indexed": true,
          "internalType": "address",
          "name": "seller",
          "type": "address"
        },
        {
          "indexed": false,
          "internalType": "uint256",
          "name": "tokenAmount",
          "type": "uint256"
        },
        {
          "indexed": false,
          "internalType": "uint256",
          "name": "priceWei",
          "type": "uint256"
        }
      ],
      "name": "CreditsListed",
      "type": "event"
    },
    {
      "anonymous": false,
      "inputs": [
        {
          "indexed": true,
          "internalType": "uint256",
          "name": "saleId",
          "type": "uint256"
        },
        {
          "indexed": true,
          "internalType": "address",
          "name": "buyer",
          "type": "address"
        },
        {
          "indexed": true,
          "internalType": "address",
          "name": "seller",
          "type": "address"
        },
        {
          "indexed": false,
          "internalType": "uint256",
          "name": "tokenAmount",
          "type": "uint256"
        },
        {
          "indexed": false,
          "internalType": "uint256",
          "name": "priceWei",
          "type": "uint256"
        }
      ],
      "name": "CreditsPurchased",
      "type": "event"
    },
    {
      "anonymous": false,
      "inputs": [
        {
          "indexed": true,
          "internalType": "uint256",
          "name": "entryId",
          "type": "uint256"
        },
        {
          "indexed": true,
          "internalType": "address",
          "name": "owner",
          "type": "address"
        },
        {
          "indexed": false,
          "internalType": "uint256",
          "name": "mintedAmount",
          "type": "uint256"
        }
      ],
      "name": "LandApproved",
      "type": "event"
    },
    {
      "anonymous": false,
      "inputs": [
        {
          "indexed": true,
          "internalType": "uint256",
          "name": "entryId",
          "type": "uint256"
        },
        {
          "indexed": true,
          "internalType": "address",
          "name": "landOwner",
          "type": "address"
        },
        {
          "indexed": false,
          "internalType": "int256",
          "name": "latitude",
          "type": "int256"
        },
        {
          "indexed": false,
          "internalType": "int256",
          "name": "longitude",
          "type": "int256"
        },
        {
          "indexed": false,
          "internalType": "uint256",
          "name": "radiusMeters",
          "type": "uint256"
        },
        {
          "indexed": false,
          "internalType": "uint256",
          "name": "areaSqMeters",
          "type": "uint256"
        },
        {
          "indexed": false,
          "internalType": "string",
          "name": "documentIpfsHash",
          "type": "string"
        }
      ],
      "name": "LandRegistered",
      "type": "event"
    },
    {
      "anonymous": false,
      "inputs": [
        {
          "indexed": true,
          "internalType": "uint256",
          "name": "entryId",
          "type": "uint256"
        }
      ],
      "name": "LandRejected",
      "type": "event"
    },
    {
      "inputs": [],
      "name": "agent",
      "outputs": [
        {
          "internalType": "address",
          "name": "",
          "type": "address"
        }
      ],
      "stateMutability": "view",
      "type": "function"
    },
    {
      "inputs": [
        {
          "internalType": "uint256",
          "name": "entryId",
          "type": "uint256"
        }
      ],
      "name": "approveLand",
      "outputs": [],
      "stateMutability": "nonpayable",
      "type": "function"
    },
    {
      "inputs": [
        {
          "internalType": "uint256",
          "name": "saleId",
          "type": "uint256"
        }
      ],
      "name": "buyCredits",
      "outputs": [],
      "stateMutability": "payable",
      "type": "function"
    },
    {
      "inputs": [
        {
          "internalType": "uint256",
          "name": "entryId",
          "type": "uint256"
        },
        {
          "internalType": "uint256",
          "name": "ndviBps",
          "type": "uint256"
        }
      ],
      "name": "calculateCredits",
      "outputs": [
        {
          "internalType": "uint256",
          "name": "creditsToMint",
          "type": "uint256"
        }
      ],
      "stateMutability": "nonpayable",
      "type": "function"
    },
    {
      "inputs": [
        {
          "internalType": "uint256",
          "name": "saleId",
          "type": "uint256"
        }
      ],
      "name": "cancelSale",
      "outputs": [],
      "stateMutability": "nonpayable",
      "type": "function"
    },
    {
      "inputs": [],
      "name": "creditToken",
      "outputs": [
        {
          "internalType": "contract CarbonCreditToken",
          "name": "",
          "type": "address"
        }
      ],
      "stateMutability": "view",
      "type": "function"
    },
    {
      "inputs": [
        {
          "internalType": "uint256",
          "name": "",
          "type": "uint256"
        }
      ],
      "name": "landEntries",
      "outputs": [
        {
          "internalType": "uint256",
          "name": "id",
          "type": "uint256"
        },
        {
          "internalType": "int256",
          "name": "latitude",
          "type": "int256"
        },
        {
          "internalType": "int256",
          "name": "longitude",
          "type": "int256"
        },
        {
          "internalType": "uint256",
          "name": "radiusMeters",
          "type": "uint256"
        },
        {
          "internalType": "uint256",
          "name": "areaSqMeters",
          "type": "uint256"
        },
        {
          "internalType": "address",
          "name": "owner",
          "type": "address"
        },
        {
          "internalType": "string",
          "name": "documentIpfsHash",
          "type": "string"
        },
        {
          "internalType": "enum CarbonCredit.ListingStatus",
          "name": "status",
          "type": "uint8"
        },
        {
          "internalType": "uint256",
          "name": "ndviBps",
          "type": "uint256"
        },
        {
          "internalType": "uint256",
          "name": "calculatedCredits",
          "type": "uint256"
        },
        {
          "internalType": "bool",
          "name": "creditsCalculated",
          "type": "bool"
        },
        {
          "internalType": "bool",
          "name": "creditsMinted",
          "type": "bool"
        }
      ],
      "stateMutability": "view",
      "type": "function"
    },
    {
      "inputs": [
        {
          "internalType": "uint256",
          "name": "tokenAmount",
          "type": "uint256"
        },
        {
          "internalType": "uint256",
          "name": "priceWei",
          "type": "uint256"
        }
      ],
      "name": "listCreditsForSale",
      "outputs": [
        {
          "internalType": "uint256",
          "name": "saleId",
          "type": "uint256"
        }
      ],
      "stateMutability": "nonpayable",
      "type": "function"
    },
    {
      "inputs": [],
      "name": "nextLandEntryId",
      "outputs": [
        {
          "internalType": "uint256",
          "name": "",
          "type": "uint256"
        }
      ],
      "stateMutability": "view",
      "type": "function"
    },
    {
      "inputs": [],
      "name": "nextSaleId",
      "outputs": [
        {
          "internalType": "uint256",
          "name": "",
          "type": "uint256"
        }
      ],
      "stateMutability": "view",
      "type": "function"
    },
    {
      "inputs": [],
      "name": "owner",
      "outputs": [
        {
          "internalType": "address",
          "name": "",
          "type": "address"
        }
      ],
      "stateMutability": "view",
      "type": "function"
    },
    {
      "inputs": [
        {
          "internalType": "int256",
          "name": "latitude",
          "type": "int256"
        },
        {
          "internalType": "int256",
          "name": "longitude",
          "type": "int256"
        },
        {
          "internalType": "uint256",
          "name": "radiusMeters",
          "type": "uint256"
        },
        {
          "internalType": "uint256",
          "name": "areaSqMeters",
          "type": "uint256"
        },
        {
          "internalType": "address",
          "name": "walletAddress",
          "type": "address"
        },
        {
          "internalType": "string",
          "name": "documentIpfsHash",
          "type": "string"
        }
      ],
      "name": "registerLand",
      "outputs": [
        {
          "internalType": "uint256",
          "name": "entryId",
          "type": "uint256"
        }
      ],
      "stateMutability": "nonpayable",
      "type": "function"
    },
    {
      "inputs": [
        {
          "internalType": "uint256",
          "name": "entryId",
          "type": "uint256"
        }
      ],
      "name": "rejectLand",
      "outputs": [],
      "stateMutability": "nonpayable",
      "type": "function"
    },
    {
      "inputs": [
        {
          "internalType": "uint256",
          "name": "",
          "type": "uint256"
        }
      ],
      "name": "sales",
      "outputs": [
        {
          "internalType": "uint256",
          "name": "id",
          "type": "uint256"
        },
        {
          "internalType": "address",
          "name": "seller",
          "type": "address"
        },
        {
          "internalType": "uint256",
          "name": "tokenAmount",
          "type": "uint256"
        },
        {
          "internalType": "uint256",
          "name": "priceWei",
          "type": "uint256"
        },
        {
          "internalType": "bool",
          "name": "isActive",
          "type": "bool"
        }
      ],
      "stateMutability": "view",
      "type": "function"
    },
    {
      "inputs": [
        {
          "internalType": "address",
          "name": "newAgent",
          "type": "address"
        }
      ],
      "name": "setAgent",
      "outputs": [],
      "stateMutability": "nonpayable",
      "type": "function"
    }
  ],
  "bytecode": "0x60a060405234801561000f575f5ffd5b50604051611bb7380380611bb783398101604081905261002e9161012e565b6001600160a01b0382166100895760405162461bcd60e51b815260206004820152601b60248201527f436172626f6e4372656469743a20746f6b656e206973207a65726f000000000060448201526064015b60405180910390fd5b6001600160a01b0381166100df5760405162461bcd60e51b815260206004820152601b60248201527f436172626f6e4372656469743a206167656e74206973207a65726f00000000006044820152606401610080565b5f80546001600160a01b031990811633179091556001600160a01b039283166080526001805492909316911617905561015f565b80516001600160a01b0381168114610129575f5ffd5b919050565b5f5f6040838503121561013f575f5ffd5b61014883610113565b915061015660208401610113565b90509250929050565b608051611a246101935f395f81816101b2015281816105230152818161075601528181610aa901526114010152611a245ff3fe6080604052600436106100e4575f3560e01c80638da5cb5b11610087578063bcf685ed11610057578063bcf685ed146102e7578063bd94b00514610306578063deb077b914610325578063f5ff5c761461033a575f5ffd5b80638da5cb5b146101ec578063921283991461020a578063a0cf3e1014610241578063b5f522f714610260575f5ffd5b806338c887b2116100c257806338c887b2146101445780634c3231af14610163578063534f232414610182578063899e5d85146101a1575f5ffd5b80630c4dfe3f146100e857806319adf6ad146100fd57806336272edc1461012f575b5f5ffd5b6100fb6100f6366004611501565b610359565b005b348015610108575f5ffd5b5061011c610117366004611518565b610659565b6040519081526020015b60405180910390f35b34801561013a575f5ffd5b5061011c60025481565b34801561014f575f5ffd5b506100fb61015e366004611501565b610902565b34801561016e575f5ffd5b506100fb61017d366004611501565b610bb2565b34801561018d575f5ffd5b5061011c61019c366004611553565b610c89565b3480156101ac575f5ffd5b506101d47f000000000000000000000000000000000000000000000000000000000000000081565b6040516001600160a01b039091168152602001610126565b3480156101f7575f5ffd5b505f546101d4906001600160a01b031681565b348015610215575f5ffd5b50610229610224366004611501565b610ea3565b6040516101269c9b9a9998979695949392919061162b565b34801561024c575f5ffd5b5061011c61025b366004611518565b610f9a565b34801561026b575f5ffd5b506102b561027a366004611501565b60066020525f90815260409020805460018201546002830154600384015460049094015492936001600160a01b039092169290919060ff1685565b604080519586526001600160a01b0390941660208601529284019190915260608301521515608082015260a001610126565b3480156102f2575f5ffd5b506100fb6103013660046116cf565b6111cc565b348015610311575f5ffd5b506100fb610320366004611501565b6112d6565b348015610330575f5ffd5b5061011c60035481565b348015610345575f5ffd5b506001546101d4906001600160a01b031681565b60045460ff16156103855760405162461bcd60e51b815260040161037c906116ef565b60405180910390fd5b6004805460ff191660011781555f8281526006602052604090209081015460ff166103f25760405162461bcd60e51b815260206004820152601b60248201527f436172626f6e4372656469743a2073616c6520696e6163746976650000000000604482015260640161037c565b806003015434146104455760405162461bcd60e51b815260206004820152601e60248201527f436172626f6e4372656469743a2077726f6e672045544820616d6f756e740000604482015260640161037c565b60048101805460ff1916905560018101546040515f916001600160a01b03169034908381818185875af1925050503d805f811461049d576040519150601f19603f3d011682016040523d82523d5f602084013e6104a2565b606091505b50509050806104ff5760405162461bcd60e51b815260206004820152602360248201527f436172626f6e4372656469743a2073656c6c6572207061796d656e74206661696044820152621b195960ea1b606482015260840161037c565b600282015460405163a9059cbb60e01b815233600482015260248101919091525f907f00000000000000000000000000000000000000000000000000000000000000006001600160a01b03169063a9059cbb906044016020604051808303815f875af1158015610571573d5f5f3e3d5ffd5b505050506040513d601f19601f820116820180604052508101906105959190611726565b9050806105f05760405162461bcd60e51b815260206004820152602360248201527f436172626f6e4372656469743a20746f6b656e2064656c6976657279206661696044820152621b195960ea1b606482015260840161037c565b6001830154600284015460038501546040805192835260208301919091526001600160a01b0390921691339187917fbdb81a3dcdbc26849893f83eee04c656ebd4f1088f166df2ba8ffb51080f6c94910160405180910390a450506004805460ff191690555050565b6004545f9060ff161561067e5760405162461bcd60e51b815260040161037c906116ef565b6004805460ff19166001179055826106e35760405162461bcd60e51b815260206004820152602260248201527f436172626f6e4372656469743a20746f6b656e20616d6f756e74206973207a65604482015261726f60f01b606482015260840161037c565b5f82116107325760405162461bcd60e51b815260206004820152601b60248201527f436172626f6e4372656469743a207072696365206973207a65726f0000000000604482015260640161037c565b6040516323b872dd60e01b8152336004820152306024820152604481018490525f907f00000000000000000000000000000000000000000000000000000000000000006001600160a01b0316906323b872dd906064016020604051808303815f875af11580156107a4573d5f5f3e3d5ffd5b505050506040513d601f19601f820116820180604052508101906107c89190611726565b9050806108235760405162461bcd60e51b8152602060048201526024808201527f436172626f6e4372656469743a20657363726f77207472616e736665722066616044820152631a5b195960e21b606482015260840161037c565b60038054905f61083283611759565b909155506040805160a0810182528281523360208083018281528385018a8152606085018a81526001608087018181525f8a81526006875289902097518855935190870180546001600160a01b0319166001600160a01b0390921691909117905590516002860155516003850155516004909301805460ff191693151593909317909255825188815291820187905292945084917f1fda4f49c804312a7dfff0df9591087a42f694f05c4cbaddf036deda36f70df5910160405180910390a3506004805460ff1916905592915050565b6001546001600160a01b0316331461092c5760405162461bcd60e51b815260040161037c90611771565b5f818152600560208190526040909120908101546001600160a01b03166109655760405162461bcd60e51b815260040161037c906117a8565b5f600782015460ff16600281111561097f5761097f6115f7565b1461099c5760405162461bcd60e51b815260040161037c906117df565b600a81015460ff166109fc5760405162461bcd60e51b8152602060048201526024808201527f436172626f6e4372656469743a2063726564697473206e6f742063616c63756c604482015263185d195960e21b606482015260840161037c565b600a810154610100900460ff1615610a565760405162461bcd60e51b815260206004820152601c60248201527f436172626f6e4372656469743a20616c7265616479206d696e74656400000000604482015260640161037c565b60078101805460ff19166001179055600a8101805461ff001916610100179055600581015460098201546040516340c10f1960e01b81526001600160a01b03928316600482015260248101919091525f917f000000000000000000000000000000000000000000000000000000000000000016906340c10f19906044016020604051808303815f875af1158015610aef573d5f5f3e3d5ffd5b505050506040513d601f19601f82011682018060405250810190610b139190611726565b905080610b625760405162461bcd60e51b815260206004820152601960248201527f436172626f6e4372656469743a206d696e74206661696c656400000000000000604482015260640161037c565b600582015460098301546040519081526001600160a01b039091169084907fed36ca5d1945d942ba72902d3662d0fc20cdf0525e968f9771415d6fcd8564c69060200160405180910390a3505050565b6001546001600160a01b03163314610bdc5760405162461bcd60e51b815260040161037c90611771565b5f818152600560208190526040909120908101546001600160a01b0316610c155760405162461bcd60e51b815260040161037c906117a8565b5f600782015460ff166002811115610c2f57610c2f6115f7565b14610c4c5760405162461bcd60e51b815260040161037c906117df565b60078101805460ff1916600217905560405182907fad423fb43b7443196fd254deba8687812bcdc897e7490d594b86c44891a612b1905f90a25050565b5f5f8511610cd95760405162461bcd60e51b815260206004820152601e60248201527f436172626f6e4372656469743a2061726561206d757374206265203e20300000604482015260640161037c565b5f8611610d285760405162461bcd60e51b815260206004820181905260248201527f436172626f6e4372656469743a20726164697573206d757374206265203e2030604482015260640161037c565b6001600160a01b038416610d7e5760405162461bcd60e51b815260206004820152601c60248201527f436172626f6e4372656469743a2077616c6c6574206973207a65726f00000000604482015260640161037c565b81610dcb5760405162461bcd60e51b815260206004820181905260248201527f436172626f6e4372656469743a20697066732068617368207265717569726564604482015260640161037c565b60028054905f610dda83611759565b909155505f818152600560208190526040909120828155600181018b9055600281018a9055600381018990556004810188905590810180546001600160a01b0319166001600160a01b03881617905590915060068101610e3b8486836118ae565b5060078101805460ff191690556040516001600160a01b0386169083907ffd4aecce9c19c9fb0341d4213c30316e95336081b5c418af426af2de0bf3b73590610e8f908d908d908d908d908c908c90611968565b60405180910390a350979650505050505050565b600560208190525f918252604090912080546001820154600283015460038401546004850154958501546006860180549597949693959294936001600160a01b0390921692610ef19061182a565b80601f0160208091040260200160405190810160405280929190818152602001828054610f1d9061182a565b8015610f685780601f10610f3f57610100808354040283529160200191610f68565b820191905f5260205f20905b815481529060010190602001808311610f4b57829003601f168201915b50505050600783015460088401546009850154600a90950154939460ff9283169491935091808216916101009004168c565b6001545f906001600160a01b03163314610fc65760405162461bcd60e51b815260040161037c90611771565b5f838152600560208190526040909120908101546001600160a01b0316610fff5760405162461bcd60e51b815260040161037c906117a8565b5f600782015460ff166002811115611019576110196115f7565b146110365760405162461bcd60e51b815260040161037c906117df565b600a810154610100900460ff16156110905760405162461bcd60e51b815260206004820152601c60248201527f436172626f6e4372656469743a20616c7265616479206d696e74656400000000604482015260640161037c565b6127108311156110e25760405162461bcd60e51b815260206004820152601c60248201527f436172626f6e4372656469743a206e6476692061626f766520312e3000000000604482015260640161037c565b6127108382600401546110f591906119b2565b61110090600a6119b2565b61111290670de0b6b3a76400006119b2565b61111c91906119cf565b91505f821161116d5760405162461bcd60e51b815260206004820152601e60248201527f436172626f6e4372656469743a206372656469747320617265207a65726f0000604482015260640161037c565b6008810183905560098101829055600a8101805460ff19166001179055604080518481526020810184905285917fec31bdcc149be1e61e90b7872aec665e585e3ba83b3f3072119bf1e5587d2572910160405180910390a25092915050565b5f546001600160a01b031633146112255760405162461bcd60e51b815260206004820152601760248201527f436172626f6e4372656469743a206e6f74206f776e6572000000000000000000604482015260640161037c565b6001600160a01b03811661127b5760405162461bcd60e51b815260206004820152601b60248201527f436172626f6e4372656469743a206167656e74206973207a65726f0000000000604482015260640161037c565b6001546040516001600160a01b038084169216907fee7760cb405d3beb1072ae2e716857daa45a5dd52bc1383a21173199d32c7dee905f90a3600180546001600160a01b0319166001600160a01b0392909216919091179055565b60045460ff16156112f95760405162461bcd60e51b815260040161037c906116ef565b6004805460ff191660011781555f8281526006602052604090209081015460ff166113665760405162461bcd60e51b815260206004820152601b60248201527f436172626f6e4372656469743a2073616c6520696e6163746976650000000000604482015260640161037c565b60018101546001600160a01b031633146113c25760405162461bcd60e51b815260206004820152601860248201527f436172626f6e4372656469743a206e6f742073656c6c65720000000000000000604482015260640161037c565b6004818101805460ff191690556001820154600283015460405163a9059cbb60e01b81526001600160a01b039283169381019390935260248301525f917f00000000000000000000000000000000000000000000000000000000000000009091169063a9059cbb906044016020604051808303815f875af1158015611449573d5f5f3e3d5ffd5b505050506040513d601f19601f8201168201806040525081019061146d9190611726565b9050806114c85760405162461bcd60e51b8152602060048201526024808201527f436172626f6e4372656469743a2072657475726e207472616e736665722066616044820152631a5b195960e21b606482015260840161037c565b60405183907fd451424f6a9a46df5d9fc50edc7685acdbb380ac8e3312f12ab4ab92e82fab98905f90a250506004805460ff1916905550565b5f60208284031215611511575f5ffd5b5035919050565b5f5f60408385031215611529575f5ffd5b50508035926020909101359150565b80356001600160a01b038116811461154e575f5ffd5b919050565b5f5f5f5f5f5f5f60c0888a031215611569575f5ffd5b8735965060208801359550604088013594506060880135935061158e60808901611538565b925060a088013567ffffffffffffffff8111156115a9575f5ffd5b8801601f81018a136115b9575f5ffd5b803567ffffffffffffffff8111156115cf575f5ffd5b8a60208284010111156115e0575f5ffd5b602082019350809250505092959891949750929550565b634e487b7160e01b5f52602160045260245ffd5b6003811061162757634e487b7160e01b5f52602160045260245ffd5b9052565b8c81528b60208201528a604082015289606082015288608082015260018060a01b03881660a082015261018060c08201525f8751806101808401528060208a016101a085015e5f6101a082850101526101a0601f19601f83011684010191505061169860e083018861160b565b85610100830152846101208301526116b561014083018515159052565b8215156101608301529d9c50505050505050505050505050565b5f602082840312156116df575f5ffd5b6116e882611538565b9392505050565b6020808252601c908201527f436172626f6e4372656469743a207265656e7472616e742063616c6c00000000604082015260600190565b5f60208284031215611736575f5ffd5b815180151581146116e8575f5ffd5b634e487b7160e01b5f52601160045260245ffd5b5f6001820161176a5761176a611745565b5060010190565b60208082526017908201527f436172626f6e4372656469743a206e6f74206167656e74000000000000000000604082015260600190565b6020808252601d908201527f436172626f6e4372656469743a20656e747279206e6f7420666f756e64000000604082015260600190565b6020808252601f908201527f436172626f6e4372656469743a20656e747279206e6f742070656e64696e6700604082015260600190565b634e487b7160e01b5f52604160045260245ffd5b600181811c9082168061183e57607f821691505b60208210810361185c57634e487b7160e01b5f52602260045260245ffd5b50919050565b601f8211156118a957805f5260205f20601f840160051c810160208510156118875750805b601f840160051c820191505b818110156118a6575f8155600101611893565b50505b505050565b67ffffffffffffffff8311156118c6576118c6611816565b6118da836118d4835461182a565b83611862565b5f601f84116001811461190b575f85156118f45750838201355b5f19600387901b1c1916600186901b1783556118a6565b5f83815260208120601f198716915b8281101561193a578685013582556020948501946001909201910161191a565b5086821015611956575f1960f88860031b161c19848701351681555b505060018560011b0183555050505050565b86815285602082015284604082015283606082015260a060808201528160a0820152818360c08301375f81830160c090810191909152601f909201601f1916010195945050505050565b80820281158282048414176119c9576119c9611745565b92915050565b5f826119e957634e487b7160e01b5f52601260045260245ffd5b50049056fea26469706673582212203e6756cc0b5c1c40679c3d6687d18f8a499faaa81dc7c58933637795b48d8bf164736f6c634300081c0033",
  "linkReferences": {},
  "deployedLinkReferences": {},
  "immutableReferences": {
    "50": [
      {
        "length": 32,
        "start": 434
      },
      {
        "length": 32,
        "start": 1315
      },
      {
        "length": 32,
        "start": 1878
      },
      {
        "length": 32,
        "start": 2729
      },
      {
        "length": 32,
        "start": 5121
      }
    ]
  },
  "inputSourceName": "project/contracts/CarbonCredit.sol",
  "buildInfoId": "solc-0_8_28-09f4ddf56c811d2a2c18193437940a4ff1cff5ce"
}